4000123456789012000000001000000000010001ACTIVE    
4000123456789013000000001000000000010001ACTIVE    
4000123456789014000000002000000000020001ACTIVE    
4000234567890123000000003000000000030001ACTIVE    
4000234567890124000000003000000000030002ACTIVE    
4000345678901234000000004000000000040001ACTIVE    
4000345678901235000000004000000000040002ACTIVE    
4000345678901236000000004000000000040003ACTIVE    
4000456789012345000000005000000000050001ACTIVE    
4000567890123456000000006000000000060001ACTIVE    
4000567890123457000000006000000000060002ACTIVE    
4000678901234567000000007000000000070001ACTIVE    
4000789012345678000000008000000000080001ACTIVE    
4000890123456789000000009000000000090001ACTIVE    
4000901234567890000000010000000000100001ACTIVE    
4001012345678901000000011000000000110001ACTIVE    
4001123456789012000000012000000000120001ACTIVE    
4001234567890123000000013000000000130001ACTIVE    
4001345678901234000000014000000000140001ACTIVE    
4001456789012345000000015000000000150001ACTIVE    
4001567890123456000000016000000000160001ACTIVE    
4001678901234567000000017000000000170001ACTIVE    
4001789012345678000000018000000000180001ACTIVE    
4001890123456789000000019000000000190001ACTIVE    
4001901234567890000000020000000000200001ACTIVE    
4002012345678901000000021000000000210001ACTIVE    
4002123456789012000000022000000000220001ACTIVE    
4002234567890123000000023000000000230001ACTIVE    
4002345678901234000000024000000000240001ACTIVE    
4002456789012345000000025000000000250001ACTIVE    
4002567890123456000000026000000000260001ACTIVE    
4002678901234567000000027000000000270001ACTIVE    
4002789012345678000000028000000000280001ACTIVE    
4002890123456789000000029000000000290001ACTIVE    
4002901234567890000000030000000000300001ACTIVE    
4003012345678901000000031000000000310001ACTIVE    
4003123456789012000000032000000000320001ACTIVE    
4003234567890123000000033000000000330001ACTIVE    
4003345678901234000000034000000000340001ACTIVE    
4003456789012345000000035000000000350001ACTIVE    
4003567890123456000000036000000000360001ACTIVE    
4003678901234567000000037000000000370001ACTIVE    
4003789012345678000000038000000000380001ACTIVE    
4003890123456789000000039000000000390001ACTIVE    
4003901234567890000000040000000000400001ACTIVE    
4004012345678901000000041000000000410001ACTIVE    
4004123456789012000000042000000000420001ACTIVE    
4004234567890123000000043000000000430001ACTIVE    
4004345678901234000000044000000000440001ACTIVE    
4004456789012345000000045000000000450001ACTIVE    
4004567890123456000000046000000000460001ACTIVE    
4004678901234567000000047000000000470001ACTIVE    
4004789012345678000000048000000000480001ACTIVE    
4004890123456789000000049000000000490001ACTIVE    
4004901234567890000000050000000000500001ACTIVE    
5000123456789012000000051000000000510001BLOCKED   
5000234567890123000000052000000000520001EXPIRED   
5000345678901234000000053000000000530001CANCELLED 
5000456789012345000000054000000000540001LOST      
5000567890123456000000055000000000550001STOLEN    
5000678901234567000000056000000000560001DAMAGED   
5000789012345678000000057000000000570001REPLACED  